:020000040040BA
:10000000B8120020110540000D0540000D0540000C
:100010000D0540000D0540000D05400000000000EA
:100020000000000000000000000000000D0540007E
:100030000D054000000000000D0540000D054000CA
:100040000D0540000D0540000D0540000D05400068
:100050000D0540000D0540000D05400000000000AA
:100060000D0540000D054000000000000D0540009A
:100070000D054000000000000D0540000D0540008A
:1000800000000000000000000D0540000D054000CC
:100090000D0540000D0540000D0540000D05400018
:1000A0000D0540000D0540000000000000000000AC
:1000B000000000000D0540000D0540000D0540004A
:1000C0000D0540000D0540000D0540000348044BA0
:1000D000834202D0034B03B118477047A00E400083
:1000E000A00E400000000000054806490B1AD90F79
:1000F00001EBA301491002D0034B03B1184770472D
:10010000A00E4000A00E40000000000010B5064CFC
:10011000237843B9FFF7DAFF044B13B10448AFF378
:1001200000800123237010BD10010020000000009A
:10013000A00E400008B5044B1BB104490448AFF3BE
:100140000080BDE80840CFE7000000001401002057
:10015000A00E400010B50A4B04469847094B98473B
:100160002046094B9847094B98472046084B98472B
:10017000084B2246102172209847002010BD00BF76
:100180001D0E400009074000150E4000E906400022
:100190001F0E400045034000F8B511F004040F465F
:1001A00015461E4608D019784C1CE4B294421DD85E
:1001B000601A18440F4B9847BA0708D51034E4B2B8
:1001C000A54213D3A4F110000B4B30449847FB0712
:1001D0000AD51034E4B2A54208D3A4F11000074BAD
:1001E00010213044984710B9AC4201D00420F8BD2A
:1001F0000020FCE7210E40000D0E4000550140009C
:100200001FB5114B6A4603F1100615461868596868
:10021000144603C40833B3422246F7D10B4B0C4CAF
:1002200098470C4B98470C4B98470C4B98472846DF
:100230000B4B98470B4B98470B4A0C4B1021012056
:100240009847A047FDE700BF6C0E40008D054000B9
:100250001104400025064000C9064000090E400078
:100260000D0E40001D03400099014000DD024000DA
:100270000346014400208B4200D1704713F8012B44
:100280005040082210F0800F4FEA400018BF80F065
:100290004D00013AC0B2F5D1EDE730B50022044679
:1002A00001238B4201D3002030BD14F8015F15B942
:1002B0009D1A85541A460133DBB2F2E730B5047853
:1002C0000023024603701D462046884200D204B92E
:1002D00030BD145C15540319D8B2F6E7F8B50C4DCF
:1002E0002B680F2B04DD61200A4B98470120F8BDD5
:1002F000FF2901D96220F7E7074F0C245C433E1920
:1003000001333855C6E901122B600020EFE700BF2A
:10031000EC010020890640002C01002010B5064C9D
:10032000064A00217620A0472346054ABDE8104032
:1003300000217720184700BFDD024000B1034000D4
:10034000D1034000F0B5C1B000230C468DF8021077
:100350008DF800308DF801000DF103019C421BDC8B
:10036000A11C104B104FC9B20DF1010098470DEBC5
:100370000403261D611DD87000250C4B0DF8065096
:10038000C9B2684698476C4614F8010B0135B84766
:10039000AE42F9DA41B0F0BDD05C01F8010B013397
:1003A000DCE700BF71024000890640009B0240006C
:1003B00007B503238DF807300DF10702034B012128
:1003C00072209847002003B05DF804FB450340000D
:1003D00030B50C4B0C48197885B000220C24D3B2F0
:1003E0008B4202F1010206DB084B6A4672209847F5
:1003F000002005B030BD04AD1D446343C35C05F867
:10040000103CECE7EC0100202C01002045034000EB
:100410002DE9F047374FC2B0002502AE8DF80750E6
:100420003446BA46B847C0B206F8010B58B905239E
:100430008DF80730304B0DF10702012165209847F8
:1004400042B0BDE8F0870135042DEBD12B4E294693
:100450002046B0472A4B61781A6880462948B14641
:1004600000230C26DFB2974202DB08D10123DFE72D
:1004700006FB07FC013310F80CC08C45F2D1E37881
:100480000533434502DA0423D2E73546D047C0B2EC
:1004900060550028CBD0E3786E1C0433B342F4DA05
:1004A000D047C0B2A0550028EDD1C8F1010151FAE2
:1004B00086F1C9B25FFA86FA04EB0800C847AAF1D0
:1004C0000201114BC9B20DF109009847635D8342E7
:1004D00001D00223ACE70B4BA17860780C2202FB21
:1004E00007370DEB0203BD68E278A8478DF80700D7
:1004F000A0E700BFA506400045034000BD02400044
:10050000EC0100202C01002071024000FEE70000F9
:1005100008B5154A154B9A4215D915498B420DD38A
:1005200000BF144B144A002193421AD3134B144AB0
:100530009A60144B9847144B9847FEE752F8040B07
:1005400043F8040BEAE7EBD20949101FCB1A034426
:10055000C2F10402D342E3D053F8040941F8040D78
:10056000F8E743F8041BDFE7A00E4000000000207E
:100570001001002010010020B802002000ED00E072
:1005800000004000250E400001024000184B4FF4CF
:10059000004270B500205A60164D174C174EA84700
:1005A0000120A8470520A847154B0020984715486B
:1005B000A047154B00209847144B3E210120984737
:1005C000B0470028FCD0124B00209847114B9847A9
:1005D0001148A047114A136823F0806313600B2071
:1005E000A847BDE870400E4B4FF060510F201847F0
:1005F00050140E40350B4000F1094000250B40001F
:10060000750B4000000E2707550A4000D90A40002C
:10061000950A40002509400010757000000A0E4040
:10062000790840001FB5104B104C4FF46132CDE9F2
:1006300001324FF40063039308200D4B984701A942
:100640000C4B2046984720460B4B98470B4B2046B7
:1006500098470B4C0B490920A0474FF000610A2036
:10066000A04704B010BD00BF90AD710000060E4061
:10067000350B400029074000630740005D0740003C
:10068000790840000100000870B5044E044D04468E
:1006900021463046A8470028FAD170BD00060E401A
:1006A0006907400037B5064D064C0DF10701284695
:1006B000A0470028F9D19DF8070003B030BD00BF66
:1006C00000060E407707400010B5054B0B209847F9
:1006D000BDE81040034B4FF040510720184700BFC2
:1006E000350B40007908400010B5054B07209847AE
:1006F000BDE81040034B4FF040510720184700BFA2
:100700005F0840007908400010B5054B0720984766
:10071000BDE81040034B4FF060510720184700BF61
:100720004508400079084000AC2310B50360D1E9CA
:100730000032B3FBF2F31B095C1E4FF6FE729442CB
:100740000AD803628B68436040F20223C0F820316C
:1007500050230360002010BD0120FCE7402303600C
:10076000704710230360704743699B0746BFC16110
:100770000020012070474369DB0743BF83690B708A
:10078000002001207047B1F1C05F426426D007D835
:10079000B1F1006F12D0B1F1805F1CD061B9704728
:1007A000B1F1005F23D007D3B1F1405F05D021F054
:1007B0008051B1F1205F00D042607047016F036F3C
:1007C0000B4023EA02030367416F436F0B4023EAA8
:1007D00002034367F0E7036F1343F4E7016F036F0E
:1007E0000B4023EA02030367436F1343F1E7036FF0
:1007F0001343F8E7D30741644CBF4166016612F02A
:100800000A0F14BF01624162930704D5C0F880103B
:10081000416101607047130748BFC0F88410F7E7D3
:1008200010B5029C41643CB141663BB101653AB1EF
:1008300001630161016010BD0166F6E74165F6E7FD
:100840004163F6E7430903F5001303F207735B0204
:1008500000F01F00012202FA00F0186370474309FC
:1008600003F5001303F207735B0200F01F0001227F
:1008700002FA00F05863704773B5044640090D460C
:1008800000F5001001F0F04100F20770B1F1005FD7
:100890004FEA40201ED00CD8B1F1805F1AD0B1F1E0
:1008A000C05F17D0B1F1006F14D00026304602B0FF
:1008B00070BD05F0E043B3F1405F19D0B1F1205FA6
:1008C000F3D104F01F040126134B2A4606FA04F163
:1008D0009847EBE704F01F02012404FA02F20F4BE1
:1008E000984715EA040612BF426602662646DDE70F
:1008F00005F06052012602F1484105EA06034A422A
:1009000004F01F0400934A41C5F3800306FA04F182
:10091000034CA047CAE700BFF50740008707400027
:100920002108400010B52C4A2C4B116B01F003013B
:1009300001292AD0023901291DD8116ACC0148D4D5
:1009400027491960116A01F0700110293ED0202951
:100950003FD0106B196800F0030002280BBF946AA7
:10096000D46A906AD06AC4F30A4404FB0111C0B28D
:10097000B1FBF0F107E01B49496908064CBF4FF491
:1009800000414FF4FA4119600DE0116AC90101D527
:100990001549F8E712491960116A01F07001102930
:1009A00012D02029F4D0106B196800F07000702864
:1009B0001BBF126BC2F30212032221FA02F208BF1C
:1009C000B1FBF2F21A6010BD0849DCE70749196073
:1009D000BFE70549FBE700BF00040E400000002010
:1009E00000093D0010140E40001BB70000127A00F1
:1009F0000E4B98420E4B03D84FF080621A6070473E
:100A00000C4A904201D20C4AF8E70C4A904201D2BB
:100A10000B4AF3E70B4A904201D80B4AEEE70B4A28
:100A200090428CBF0A4A4FF00422E7E7FF2C3101C5
:100A3000000A0E40005A620200010004008793037E
:100A400000020004FFB3C40400030004FFE0F50546
:100A5000000500040E4B1A6B22F003021A6340F6E5
:100A60000102996E09070BD51A6B22F07002104330
:100A7000186340F60102996E090705D500207047FA
:100A8000013AEED101207047013AF4D1FAE700BFF4
:100A900000040E400F4B1A6B22F0030242F00102D9
:100AA0001A6340F60102996E09070BD51A6B22F002
:100AB00070021043186340F60102996E090705D5CC
:100AC00000207047013AEED101207047013AF4D17D
:100AD000FAE700BF00040E400F4A30B1136A0F4915
:100AE00019400F4B0B4313627047106A0B0220F43E
:100AF0005C119BB221F003010B4343F45C1343F000
:100B000001031362936EDB07FCD5136A43F09B73FA
:100B100043F48033E7E700BF00040E40FCFFC8FE4B
:100B200002003701024B986E00F48030704700BF1E
:100B300000040E40222818D81F280D4A4FF0010348
:100B400008D8916903FA00F030EA010300D010617F
:100B500000207047D2F80811203803FA00F030EA7C
:100B60000103F5D0C2F80001F2E70120704700BF91
:100B700000040E40034B18B1034AC3F8E420704749
:100B8000024AFAE700040E4001434D5000434D5025
:100B9000F7B52B4B2B4A1B6803F110011878107026
:100BA0005878507098789070D878D07004338B4211
:100BB00002F10402F2D1244B2449254C042201AE57
:100BC0001D46042015F8017B06F8017B0138F9D198
:100BD000900716D19DF804509DF807604D5D9DF873
:100BE00005008DF8075095089DF80670085C655D56
:100BF000CF5D8E5D8DF8057068408DF806608DF8CC
:100C0000040013F80C0C9DF80450684018719DF80E
:100C1000055013F80B0C684058719DF8065013F8F6
:100C20000A0C684098719DF8075013F8090C0132BE
:100C300068402C2AD87103F10403C0D103B0F0BD81
:100C4000F0010020F4010020000200200F0000202D
:100C500004000020F0B50B4B0B4E196800010A1D73
:100C60001431131F35181C7815F8017B7C4003F8EC
:100C7000014B9342F7D11A1D8A4200F10400F0D1D2
:100C8000F0BD00BFB4020020F401002010B5084BF5
:100C900008481B68191D002213F82240045D03F860
:100CA00022400132042AF7D101338B42F3D110BD27
:100CB000B40200200F0000200D4B1B6859795A78B0
:100CC0005970597A5971597B5972997A5A739A782D
:100CD0009970997B9A729A799971D97B9A73DA781B
:100CE000D970D97AD973D979D972DA71704700BFBE
:100CF000B4020020C3095A00134403EBC30383EA80
:100D00004000C0B2704700002DE9F04F85B0264D7D
:100D1000DFF8A0A00020A84701240195D047234B6D
:100D2000DFF894B09847224B196801F11003029341
:100D300091F800904E788D7891F8038089EA06004A
:100D400085EA080282EA00070392D84789EA000090
:100D50007840087086EA0500D847039A46407E40EE
:100D60004E701046D84745407D408D7089EA080096
:100D7000D84788EA0008029B87EA0807CF70043149
:100D80009942D5D120460134019BE4B298470A2C00
:100D9000C4D1084B9847054B9847019B204605B0A6
:100DA000BDE8F04F184700BF550C4000B90C40009B
:100DB000B40200208D0C4000F50C40004B1E0138A1
:100DC0000F3113F8012F00F8012F8B42F9D1704732
:100DD000014B1860014B1847F0010020910B4000B7
:100DE00010B5054B01461860044B05489847BDE80F
:100DF0001040044B184700BFB4020020BD0D400056
:100E0000A4020020090D400070470000004B184765
:100E1000D10D4000004B1847E10D4000704770476E
:100E20007047000070B50D4E0D4D761BB61006D004
:100E30000024013455F8043B9847A642F9D1094EE5
:100E4000094D761B00F01CF8B61006D000240134C2
:100E500055F8043B9847A642F9D170BD8C0E40006E
:100E60008C0E4000900E40008C0E40002B7E15161C
:100E700028AED2A6ABF7158809CF4F3C0000000082
:100E8000F8B500BFF8BC08BC9E467047350140006D
:100E9000F8B500BFF8BC08BC9E4670470D01400085
:100EA00000093D008D01020408102040801B3663BC
:100EB0007C777BF26B6FC53001672BFED7AB76CAB0
:100EC00082C97DFA5947F0ADD4A2AF9CA472C0B7D5
:100ED000FD9326363FF7CC34A5E5F171D8311504E2
:100EE000C723C31896059A071280E2EB27B275094B
:100EF000832C1A1B6E5AA0523BD6B329E32F84537E
:100F0000D100ED20FCB15B6ACBBE394A4C58CFD042
:100F1000EFAAFB434D338545F9027F503C9FA85112
:100F2000A3408F929D38F5BCB6DA2110FFF3D2CDE5
:100F30000C13EC5F974417C4A77E3D645D19736082
:100F4000814FDC222A908846EEB814DE5E0BDBE08F
:100F5000323A0A4906245CC2D3AC629195E479E73F
:100F6000C8376D8DD54EA96C56F4EA657AAE08BACD
:100F700078252E1CA6B4C6E8DD741F4BBD8B8A7085
:100F80003EB5664803F60E613557B986C11D9EE130
:100F9000F8981169D98E949B1E87E9CE5528DF8C6D
:100FA000A1890DBFE6426841992D0FB054BB1600D0
:0400000500400511A1
:00000001FF
